{
    "_format": "hh-sol-artifact-1",
    "contractName": "Swap",
    "sourceName": "contracts/Swap.sol",
    "abi": [
        {
            "inputs": [
                {
                    "internalType": "address",
                    "name": "_nftContractAddress",
                    "type": "address"
                }
            ],
            "stateMutability": "nonpayable",
            "type": "constructor"
        },
        {
            "anonymous": false,
            "inputs": [
                {
                    "indexed": true,
                    "internalType": "address",
                    "name": "previousOwner",
                    "type": "address"
                },
                {
                    "indexed": true,
                    "internalType": "address",
                    "name": "newOwner",
                    "type": "address"
                }
            ],
            "name": "OwnershipTransferred",
            "type": "event"
        },
        {
            "anonymous": false,
            "inputs": [
                {
                    "indexed": false,
                    "internalType": "uint256",
                    "name": "tradeId",
                    "type": "uint256"
                },
                {
                    "indexed": false,
                    "internalType": "address",
                    "name": "sender",
                    "type": "address"
                },
                {
                    "indexed": false,
                    "internalType": "address",
                    "name": "receiver",
                    "type": "address"
                },
                {
                    "indexed": false,
                    "internalType": "uint256",
                    "name": "senderId",
                    "type": "uint256"
                },
                {
                    "indexed": false,
                    "internalType": "uint256",
                    "name": "receiverId",
                    "type": "uint256"
                }
            ],
            "name": "TradeCreated",
            "type": "event"
        },
        {
            "anonymous": false,
            "inputs": [
                {
                    "indexed": false,
                    "internalType": "uint256",
                    "name": "tradeId",
                    "type": "uint256"
                },
                {
                    "indexed": false,
                    "internalType": "string",
                    "name": "",
                    "type": "string"
                }
            ],
            "name": "TradeUpdated",
            "type": "event"
        },
        {
            "inputs": [
                {
                    "internalType": "uint256",
                    "name": "_tradeId",
                    "type": "uint256"
                }
            ],
            "name": "acceptTradeRequest",
            "outputs": [],
            "stateMutability": "nonpayable",
            "type": "function"
        },
        {
            "inputs": [
                {
                    "internalType": "uint256",
                    "name": "_tradeId",
                    "type": "uint256"
                }
            ],
            "name": "cancelTradeRequest",
            "outputs": [],
            "stateMutability": "nonpayable",
            "type": "function"
        },
        {
            "inputs": [
                {
                    "internalType": "address",
                    "name": "_receiver",
                    "type": "address"
                },
                {
                    "internalType": "uint256",
                    "name": "_senderTokenId",
                    "type": "uint256"
                },
                {
                    "internalType": "uint256",
                    "name": "_receiverTokenId",
                    "type": "uint256"
                }
            ],
            "name": "makeTradeRequest",
            "outputs": [],
            "stateMutability": "nonpayable",
            "type": "function"
        },
        {
            "inputs": [],
            "name": "owner",
            "outputs": [
                {
                    "internalType": "address",
                    "name": "",
                    "type": "address"
                }
            ],
            "stateMutability": "view",
            "type": "function"
        },
        {
            "inputs": [
                {
                    "internalType": "uint256",
                    "name": "_tradeId",
                    "type": "uint256"
                }
            ],
            "name": "queryTradeRequest",
            "outputs": [
                {
                    "internalType": "address",
                    "name": "",
                    "type": "address"
                },
                {
                    "internalType": "address",
                    "name": "",
                    "type": "address"
                },
                {
                    "internalType": "uint256",
                    "name": "",
                    "type": "uint256"
                },
                {
                    "internalType": "uint256",
                    "name": "",
                    "type": "uint256"
                },
                {
                    "internalType": "bool",
                    "name": "",
                    "type": "bool"
                }
            ],
            "stateMutability": "view",
            "type": "function"
        },
        {
            "inputs": [
                {
                    "internalType": "uint256",
                    "name": "_tradeId",
                    "type": "uint256"
                }
            ],
            "name": "rejectTradeRequest",
            "outputs": [],
            "stateMutability": "nonpayable",
            "type": "function"
        },
        {
            "inputs": [],
            "name": "renounceOwnership",
            "outputs": [],
            "stateMutability": "nonpayable",
            "type": "function"
        },
        {
            "inputs": [
                {
                    "internalType": "address",
                    "name": "newOwner",
                    "type": "address"
                }
            ],
            "name": "transferOwnership",
            "outputs": [],
            "stateMutability": "nonpayable",
            "type": "function"
        }
    ],
    "bytecode": "0x60806040523480156200001157600080fd5b50604051620021f6380380620021f68339818101604052810190620000379190620001d5565b620000576200004b6200009f60201b60201c565b620000a760201b60201c565b80600160006101000a81548173ffffffffffffffffffffffffffffffffffffffff021916908373ffffffffffffffffffffffffffffffffffffffff1602179055505062000207565b600033905090565b60008060009054906101000a900473ffffffffffffffffffffffffffffffffffffffff169050816000806101000a81548173ffffffffffffffffffffffffffffffffffffffff021916908373ffffffffffffffffffffffffffffffffffffffff1602179055508173ffffffffffffffffffffffffffffffffffffffff168173ffffffffffffffffffffffffffffffffffffffff167f8be0079c531659141344cd1fd0a4f28419497f9722a3daafe3b4186f6b6457e060405160405180910390a35050565b600080fd5b600073ffffffffffffffffffffffffffffffffffffffff82169050919050565b60006200019d8262000170565b9050919050565b620001af8162000190565b8114620001bb57600080fd5b50565b600081519050620001cf81620001a4565b92915050565b600060208284031215620001ee57620001ed6200016b565b5b6000620001fe84828501620001be565b91505092915050565b611fdf80620002176000396000f3fe608060405234801561001057600080fd5b50600436106100885760003560e01c8063b30891a51161005b578063b30891a5146100ed578063e8c3a4a114610121578063e9f8840f1461013d578063f2fde38b1461015957610088565b8063715018a61461008d57806372b57317146100975780638da5cb5b146100b35780639591fe28146100d1575b600080fd5b610095610175565b005b6100b160048036038101906100ac91906115e3565b610189565b005b6100bb61091f565b6040516100c89190611651565b60405180910390f35b6100eb60048036038101906100e69190611698565b610948565b005b610107600480360381019061010291906115e3565b610df1565b604051610118959493929190611715565b60405180910390f35b61013b600480360381019061013691906115e3565b610f6f565b005b610157600480360381019061015291906115e3565b611193565b005b610173600480360381019061016e9190611768565b6113b7565b005b61017d61143a565b61018760006114b8565b565b6000600260008381526020019081526020016000206040518060a00160405290816000820160009054906101000a900473ffffffffffffffffffffffffffffffffffffffff1673ffffffffffffffffffffffffffffffffffffffff1673ffffffffffffffffffffffffffffffffffffffff1681526020016001820160009054906101000a900473ffffffffffffffffffffffffffffffffffffffff1673ffffffffffffffffffffffffffffffffffffffff1673ffffffffffffffffffffffffffffffffffffffff16815260200160028201548152602001600382015481526020016004820160009054906101000a900460ff16151515158152505090506001151581608001511515146102d1576040517f08c379a00000000000000000000000000000000000000000000000000000000081526004016102c8906117f2565b60405180910390fd5b3373ffffffffffffffffffffffffffffffffffffffff16816020015173ffffffffffffffffffffffffffffffffffffffff1614610343576040517f08c379a000000000000000000000000000000000000000000000000000000000815260040161033a90611884565b60405180910390fd5b806000015173ffffffffffffffffffffffffffffffffffffffff16600160009054906101000a900473ffffffffffffffffffffffffffffffffffffffff1673ffffffffffffffffffffffffffffffffffffffff16636352211e83604001516040518263ffffffff1660e01b81526004016103bd91906118a4565b602060405180830381865afa1580156103da573d6000803e3d6000fd5b505050506040513d601f19601f820116820180604052508101906103fe91906118d4565b73ffffffffffffffffffffffffffffffffffffffff1614610454576040517f08c379a000000000000000000000000000000000000000000000000000000000815260040161044b9061194d565b60405180910390fd5b3373ffffffffffffffffffffffffffffffffffffffff16600160009054906101000a900473ffffffffffffffffffffffffffffffffffffffff1673ffffffffffffffffffffffffffffffffffffffff16636352211e83606001516040518263ffffffff1660e01b81526004016104ca91906118a4565b602060405180830381865afa1580156104e7573d6000803e3d6000fd5b505050506040513d601f19601f8201168201806040525081019061050b91906118d4565b73ffffffffffffffffffffffffffffffffffffffff1614610561576040517f08c379a0000000000000000000000000000000000000000000000000000000008152600401610558906119b9565b60405180910390fd5b3073ffffffffffffffffffffffffffffffffffffffff16600160009054906101000a900473ffffffffffffffffffffffffffffffffffffffff1673ffffffffffffffffffffffffffffffffffffffff1663081812fc83604001516040518263ffffffff1660e01b81526004016105d791906118a4565b602060405180830381865afa1580156105f4573d6000803e3d6000fd5b505050506040513d601f19601f8201168201806040525081019061061891906118d4565b73ffffffffffffffffffffffffffffffffffffffff161461066e576040517f08c379a000000000000000000000000000000000000000000000000000000000815260040161066590611a4b565b60405180910390fd5b3073ffffffffffffffffffffffffffffffffffffffff16600160009054906101000a900473ffffffffffffffffffffffffffffffffffffffff1673ffffffffffffffffffffffffffffffffffffffff1663081812fc83606001516040518263ffffffff1660e01b81526004016106e491906118a4565b602060405180830381865afa158015610701573d6000803e3d6000fd5b505050506040513d601f19601f8201168201806040525081019061072591906118d4565b73ffffffffffffffffffffffffffffffffffffffff161461077b576040517f08c379a000000000000000000000000000000000000000000000000000000000815260040161077290611add565b60405180910390fd5b600160009054906101000a900473ffffffffffffffffffffffffffffffffffffffff1673ffffffffffffffffffffffffffffffffffffffff166342842e0e8260000151836020015184604001516040518463ffffffff1660e01b81526004016107e693929190611afd565b600060405180830381600087803b15801561080057600080fd5b505af1158015610814573d6000803e3d6000fd5b50505050600160009054906101000a900473ffffffffffffffffffffffffffffffffffffffff1673ffffffffffffffffffffffffffffffffffffffff166342842e0e8260200151836000015184606001516040518463ffffffff1660e01b815260040161088393929190611afd565b600060405180830381600087803b15801561089d57600080fd5b505af11580156108b1573d6000803e3d6000fd5b5050505060006002600084815260200190815260200160002060040160006101000a81548160ff0219169083151502179055507f3724e500c0a5c8a7e8bd9fb899188409506f302a8f56881dba2a50690735c4a6826040516109139190611b80565b60405180910390a15050565b60008060009054906101000a900473ffffffffffffffffffffffffffffffffffffffff16905090565b3373ffffffffffffffffffffffffffffffffffffffff16600160009054906101000a900473ffffffffffffffffffffffffffffffffffffffff1673ffffffffffffffffffffffffffffffffffffffff16636352211e846040518263ffffffff1660e01b81526004016109ba91906118a4565b602060405180830381865afa1580156109d7573d6000803e3d6000fd5b505050506040513d601f19601f820116820180604052508101906109fb91906118d4565b73ffffffffffffffffffffffffffffffffffffffff1614610a51576040517f08c379a0000000000000000000000000000000000000000000000000000000008152600401610a489061194d565b60405180910390fd5b8273ffffffffffffffffffffffffffffffffffffffff16600160009054906101000a900473ffffffffffffffffffffffffffffffffffffffff1673ffffffffffffffffffffffffffffffffffffffff16636352211e836040518263ffffffff1660e01b8152600401610ac391906118a4565b602060405180830381865afa158015610ae0573d6000803e3d6000fd5b505050506040513d601f19601f82011682018060405250810190610b0491906118d4565b73ffffffffffffffffffffffffffffffffffffffff1614610b5a576040517f08c379a0000000000000000000000000000000000000000000000000000000008152600401610b51906119b9565b60405180910390fd5b3073ffffffffffffffffffffffffffffffffffffffff16600160009054906101000a900473ffffffffffffffffffffffffffffffffffffffff1673ffffffffffffffffffffffffffffffffffffffff1663081812fc846040518263ffffffff1660e01b8152600401610bcc91906118a4565b602060405180830381865afa158015610be9573d6000803e3d6000fd5b505050506040513d601f19601f82011682018060405250810190610c0d91906118d4565b73ffffffffffffffffffffffffffffffffffffffff1614610c63576040517f08c379a0000000000000000000000000000000000000000000000000000000008152600401610c5a90611a4b565b60405180910390fd5b6040518060a001604052803373ffffffffffffffffffffffffffffffffffffffff1681526020018473ffffffffffffffffffffffffffffffffffffffff1681526020018381526020018281526020016001151581525060026000610cc7600361157c565b815260200190815260200160002060008201518160000160006101000a81548173ffffffffffffffffffffffffffffffffffffffff021916908373ffffffffffffffffffffffffffffffffffffffff16021790555060208201518160010160006101000a81548173ffffffffffffffffffffffffffffffffffffffff021916908373ffffffffffffffffffffffffffffffffffffffff160217905550604082015181600201556060820151816003015560808201518160040160006101000a81548160ff0219169083151502179055509050507ff7cdeae600171136f77d3df848176c47ce8102a3be1a47edcfda2b7b892fe301610dc5600361157c565b33858585604051610dda959493929190611bae565b60405180910390a1610dec600361158a565b505050565b6000806000806000610e03600361157c565b861115610e45576040517f08c379a0000000000000000000000000000000000000000000000000000000008152600401610e3c90611c73565b60405180910390fd5b6000600260008881526020019081526020016000206040518060a00160405290816000820160009054906101000a900473ffffffffffffffffffffffffffffffffffffffff1673ffffffffffffffffffffffffffffffffffffffff1673ffffffffffffffffffffffffffffffffffffffff1681526020016001820160009054906101000a900473ffffffffffffffffffffffffffffffffffffffff1673ffffffffffffffffffffffffffffffffffffffff1673ffffffffffffffffffffffffffffffffffffffff16815260200160028201548152602001600382015481526020016004820160009054906101000a900460ff161515151581525050905080600001518160200151826040015183606001518460800151955095509550955095505091939590929450565b6000600260008381526020019081526020016000206040518060a00160405290816000820160009054906101000a900473ffffffffffffffffffffffffffffffffffffffff1673ffffffffffffffffffffffffffffffffffffffff1673ffffffffffffffffffffffffffffffffffffffff1681526020016001820160009054906101000a900473ffffffffffffffffffffffffffffffffffffffff1673ffffffffffffffffffffffffffffffffffffffff1673ffffffffffffffffffffffffffffffffffffffff16815260200160028201548152602001600382015481526020016004820160009054906101000a900460ff16151515158152505090506001151581608001511515146110b7576040517f08c379a00000000000000000000000000000000000000000000000000000000081526004016110ae906117f2565b60405180910390fd5b3373ffffffffffffffffffffffffffffffffffffffff16816020015173ffffffffffffffffffffffffffffffffffffffff1614611129576040517f08c379a000000000000000000000000000000000000000000000000000000000815260040161112090611d05565b60405180910390fd5b60006002600084815260200190815260200160002060040160006101000a81548160ff0219169083151502179055507f3724e500c0a5c8a7e8bd9fb899188409506f302a8f56881dba2a50690735c4a6826040516111879190611d71565b60405180910390a15050565b6000600260008381526020019081526020016000206040518060a00160405290816000820160009054906101000a900473ffffffffffffffffffffffffffffffffffffffff1673ffffffffffffffffffffffffffffffffffffffff1673ffffffffffffffffffffffffffffffffffffffff1681526020016001820160009054906101000a900473ffffffffffffffffffffffffffffffffffffffff1673ffffffffffffffffffffffffffffffffffffffff1673ffffffffffffffffffffffffffffffffffffffff16815260200160028201548152602001600382015481526020016004820160009054906101000a900460ff16151515158152505090506001151581608001511515146112db576040517f08c379a00000000000000000000000000000000000000000000000000000000081526004016112d2906117f2565b60405180910390fd5b3373ffffffffffffffffffffffffffffffffffffffff16816000015173ffffffffffffffffffffffffffffffffffffffff161461134d576040517f08c379a000000000000000000000000000000000000000000000000000000000815260040161134490611e11565b60405180910390fd5b60006002600084815260200190815260200160002060040160006101000a81548160ff0219169083151502179055507f3724e500c0a5c8a7e8bd9fb899188409506f302a8f56881dba2a50690735c4a6826040516113ab9190611e7d565b60405180910390a15050565b6113bf61143a565b600073ffffffffffffffffffffffffffffffffffffffff168173ffffffffffffffffffffffffffffffffffffffff160361142e576040517f08c379a000000000000000000000000000000000000000000000000000000000815260040161142590611f1d565b60405180910390fd5b611437816114b8565b50565b6114426115a0565b73ffffffffffffffffffffffffffffffffffffffff1661146061091f565b73ffffffffffffffffffffffffffffffffffffffff16146114b6576040517f08c379a00000000000000000000000000000000000000000000000000000000081526004016114ad90611f89565b60405180910390fd5b565b60008060009054906101000a900473ffffffffffffffffffffffffffffffffffffffff169050816000806101000a81548173ffffffffffffffffffffffffffffffffffffffff021916908373ffffffffffffffffffffffffffffffffffffffff1602179055508173ffffffffffffffffffffffffffffffffffffffff168173ffffffffffffffffffffffffffffffffffffffff167f8be0079c531659141344cd1fd0a4f28419497f9722a3daafe3b4186f6b6457e060405160405180910390a35050565b600081600001549050919050565b6001816000016000828254019250508190555050565b600033905090565b600080fd5b6000819050919050565b6115c0816115ad565b81146115cb57600080fd5b50565b6000813590506115dd816115b7565b92915050565b6000602082840312156115f9576115f86115a8565b5b6000611607848285016115ce565b91505092915050565b600073ffffffffffffffffffffffffffffffffffffffff82169050919050565b600061163b82611610565b9050919050565b61164b81611630565b82525050565b60006020820190506116666000830184611642565b92915050565b61167581611630565b811461168057600080fd5b50565b6000813590506116928161166c565b92915050565b6000806000606084860312156116b1576116b06115a8565b5b60006116bf86828701611683565b93505060206116d0868287016115ce565b92505060406116e1868287016115ce565b9150509250925092565b6116f4816115ad565b82525050565b60008115159050919050565b61170f816116fa565b82525050565b600060a08201905061172a6000830188611642565b6117376020830187611642565b61174460408301866116eb565b61175160608301856116eb565b61175e6080830184611706565b9695505050505050565b60006020828403121561177e5761177d6115a8565b5b600061178c84828501611683565b91505092915050565b600082825260208201905092915050565b7f5472616465206973206e6f74206f70656e000000000000000000000000000000600082015250565b60006117dc601183611795565b91506117e7826117a6565b602082019050919050565b6000602082019050818103600083015261180b816117cf565b9050919050565b7f4f6e6c792074726164652072656365697665722063616e20616363657074207460008201527f7261646500000000000000000000000000000000000000000000000000000000602082015250565b600061186e602483611795565b915061187982611812565b604082019050919050565b6000602082019050818103600083015261189d81611861565b9050919050565b60006020820190506118b960008301846116eb565b92915050565b6000815190506118ce8161166c565b92915050565b6000602082840312156118ea576118e96115a8565b5b60006118f8848285016118bf565b91505092915050565b7f53656e646572206d757374206f776e206f666665726564204e46540000000000600082015250565b6000611937601b83611795565b915061194282611901565b602082019050919050565b600060208201905081810360008301526119668161192a565b9050919050565b7f5265636569766572206d757374206f776e20726571756573746564204e465400600082015250565b60006119a3601f83611795565b91506119ae8261196d565b602082019050919050565b600060208201905081810360008301526119d281611996565b9050919050565b7f53656e646572206d75737420617070726f7665207468697320636f6e7472616360008201527f7400000000000000000000000000000000000000000000000000000000000000602082015250565b6000611a35602183611795565b9150611a40826119d9565b604082019050919050565b60006020820190508181036000830152611a6481611a28565b9050919050565b7f5265636569766572206d75737420617070726f7665207468697320636f6e747260008201527f6163740000000000000000000000000000000000000000000000000000000000602082015250565b6000611ac7602383611795565b9150611ad282611a6b565b604082019050919050565b60006020820190508181036000830152611af681611aba565b9050919050565b6000606082019050611b126000830186611642565b611b1f6020830185611642565b611b2c60408301846116eb565b949350505050565b7f6163636570746564000000000000000000000000000000000000000000000000600082015250565b6000611b6a600883611795565b9150611b7582611b34565b602082019050919050565b6000604082019050611b9560008301846116eb565b8181036020830152611ba681611b5d565b905092915050565b600060a082019050611bc360008301886116eb565b611bd06020830187611642565b611bdd6040830186611642565b611bea60608301856116eb565b611bf760808301846116eb565b9695505050505050565b7f5175657279696e672061207472616465207468617420646f65736e277420657860008201527f6973740000000000000000000000000000000000000000000000000000000000602082015250565b6000611c5d602383611795565b9150611c6882611c01565b604082019050919050565b60006020820190508181036000830152611c8c81611c50565b9050919050565b7f4f6e6c792074726164652072656365697665722063616e2072656a656374207460008201527f7261646500000000000000000000000000000000000000000000000000000000602082015250565b6000611cef602483611795565b9150611cfa82611c93565b604082019050919050565b60006020820190508181036000830152611d1e81611ce2565b9050919050565b7f72656a6563746564000000000000000000000000000000000000000000000000600082015250565b6000611d5b600883611795565b9150611d6682611d25565b602082019050919050565b6000604082019050611d8660008301846116eb565b8181036020830152611d9781611d4e565b905092915050565b7f4f6e6c79207472616465207265717565737465722063616e2063616e63656c2060008201527f7472616465000000000000000000000000000000000000000000000000000000602082015250565b6000611dfb602583611795565b9150611e0682611d9f565b604082019050919050565b60006020820190508181036000830152611e2a81611dee565b9050919050565b7f63616e63656c6564000000000000000000000000000000000000000000000000600082015250565b6000611e67600883611795565b9150611e7282611e31565b602082019050919050565b6000604082019050611e9260008301846116eb565b8181036020830152611ea381611e5a565b905092915050565b7f4f776e61626c653a206e6577206f776e657220697320746865207a65726f206160008201527f6464726573730000000000000000000000000000000000000000000000000000602082015250565b6000611f07602683611795565b9150611f1282611eab565b604082019050919050565b60006020820190508181036000830152611f3681611efa565b9050919050565b7f4f776e61626c653a2063616c6c6572206973206e6f7420746865206f776e6572600082015250565b6000611f73602083611795565b9150611f7e82611f3d565b602082019050919050565b60006020820190508181036000830152611fa281611f66565b905091905056fea264697066735822122071405b2e13ab0e07324f1d887962209ef2bbcb8326933c003d30c7869e64d22a64736f6c63430008110033",
    "linkReferences": {},
    "deployedLinkReferences": {}
}